:020000040800F2
:10000000A80500209D0100086114000829120008BD
:100010005D140008A9020008291B00080000000068
:10002000000000000000000000000000951400081F
:10003000AD0200080000000091140008C914000877
:10004000B7010008B7010008B7010008B7010008B0
:10005000B7010008B7010008B7010008B7010008A0
:10006000B7010008B7010008B7010008B701000890
:10007000B7010008B7010008B7010008B701000880
:10008000B7010008B7010008B7010008B701000870
:10009000B7010008B7010008B7010008B102000865
:1000A000B7010008B7010008991500088915000874
:1000B000B7010008B7010008B7010008B701000840
:1000C000B7010008B7010008B7010008B701000830
:1000D000B7010008F11A0008B7010008B7010008CD
:1000E000B7010008B7010008B7010008B701000810
:1000F000B7010008B7010008B7010008B701000800
:10010000B7010008B7010008B7010008B7010008EF
:10011000B7010008B7010008B7010008B7010008DF
:10012000B7010008B7010008B7010008B7010008CF
:10013000B7010008B7010008B7010008B7010008BF
:10014000B7010008B7010008B7010008B7010008AF
:10015000B7010008B7010008B7010008B70100089F
:10016000B7010008B7010008B7010008B70100088F
:10017000B7010008B7010008B7010008000000003F
:10018000B7010008B7010008DFF80CD000F07AF8DA
:1001900000480047F11B0008A805002006488047DA
:1001A00006480047FEE7FEE7FEE7FEE7FEE7FEE75C
:1001B000FEE7FEE7FEE7FEE76D150008890100088F
:1001C0002DE9F05F0546002092469B46884606468C
:1001D000814640241BE0284641464746224600F01F
:1001E00041F853465A46C01A914110D31146184659
:1001F000224600F028F82D1A67EB01084F462246E8
:100200000120002100F01FF817EB00094E41201ECD
:10021000A4F10104DFDC484631462A464346BDE8E6
:10022000F09FD2B201E000F8012B491EFBD27047CB
:100230000022F6E710B513460A4604461946FFF7B2
:10024000F0FF204610BD202A04DB203A00FA02F11C
:10025000002070479140C2F1200320FA03F31943B4
:1002600090407047202A04DB203A21FA02F0002156
:10027000704721FA02F3D040C2F1200291400843B6
:1002800019467047064C074D06E0E06840F0010350
:1002900094E8070098471034AC42F6D3FFF778FF94
:1002A000541D0008741D0008FEE7000070470000A0
:1002B00080B5402000F04EF880BD0000EFF31080C4
:1002C00072B600BFFEE70000816B022908D105214C
:1002D00081630068016821F001010160002070471E
:1002E0008021816501207047B0B5044600F014F903
:1002F000054640F20400C2F200000068611C18BF0D
:10030000044400BF00F008F9401BA042FAD3B0BD7E
:1003100010B540F60004C4F2020400BF204640219C
:1003200000F0F4F80028F9D040F21000C2F200000A
:100330000278052A88BF10BD0021DFE802F003091A
:1003400005090708012102E0032100E005210170F1
:1003500010BD000080B543F61441C4F201010A68E3
:10036000024208BF80BD0860FFF7D2FF80BD0000D9
:100370002DE9F04F83B000F13E4202F1FF7243F6E7
:10038000004E4FEAB22241F60047C4F2010E01923C
:10039000C4F2020708224FF0010B00254FF00008BD
:1003A0004FF00009B84208BF072200920AE000BFE0
:1003B00009F1010908F10408B9F1100F05F102056E
:1003C00000F0A1800F680BFA09F417EA040CEFD0D3
:1003D000D1F804A0BAF1120F15D80BFA0AF717F0EA
:1003E000061F10D087680322CE68AA4027EA0202BF
:1003F000AE40324382604268A243CAF3001404FA5A
:1004000009F422434260C26803238E6803FA05F4AC
:10041000A2436FEA040B06FA05F422434AF01004E3
:10042000122CC2600FD16FF0030202EA590202449B
:1004300008F01C060F23146A03FA06F70B69BC4385
:10044000B3402343136202684B6802EA0B0203F0D5
:100450000304AC402243DB004FF0010B0260A7D540
:10046000002243F644030292C4F202031A684FF6D4
:10047000084A42F480421A601A68CFF6FF7A02F402
:1004800080420292029A29F00302724452F80A3022
:1004900008F00C040F26A640019FB343009E072FCF
:1004A00038BF3E4606FA04F4234342F80A30DEF829
:1004B00000204B6842EA0C04DE0358BF22EA0C0419
:1004C000CEF80040DEF804209E0342EA0C0458BF38
:1004D00022EA0C04CEF80440DEF80820DE0242EAEC
:1004E0000C0458BF22EA0C04CEF8084043F60C4432
:1004F000C4F2010422689B0242EA0C0358BF22EABC
:100500000C03236054E703B0BDE8F08F0069084096
:1005100018BF01207047000040F2A010C2F2000096
:100520000068704740F2040040F2A011C2F20000DF
:10053000C2F2000100680A681044086070470000B9
:1005400080B543F60040C4F20200016841F4007136
:100550000160016841F480610160016841F48071CB
:100560000160032000F060F8002000F005F800F0C2
:100570002BF8002080BD0000B0B540F20402C2F2AA
:10058000000240F200011268C2F200014FF47A73D7
:100590000968B3FBF2F20446B1FBF2F1084600F041
:1005A000F1FA0F2C4FF001050CD858B94FF0FF307D
:1005B00021460022002500F027F840F20800C2F290
:1005C000000004602846B0BD82B0002043F6400120
:1005D0000190C4F202014A6842F480424A604A68CB
:1005E00002F480420192019A0090086840F0805025
:1005F0000860086800F080500090009802B07047D2
:1006000080B501F093FA80BD70B514460D460646DC
:1006100001F09CFA2946224600F024FF01463046AC
:1006200001F09CFA70BD000080B501F0A9FA80BD10
:100630002DE9F041002800F08B8043F60808C4F251
:1006400002080446D8F8F8030D4600F00F0088426F
:1006500007D288F8F853D8F8F80300F00F00A84242
:1006600076D12068810717D5410705D5D8F8001045
:1006700041F4E051C8F80010010705D5D8F8001082
:1006800041F46041C8F80010D8F80010A26821F0C9
:10069000F0011143C8F80010C0073FD1D8F8F803A3
:1006A00000F00F00A84207D988F8F853D8F8F803EB
:1006B00000F00F00A8424BD12068410707D5D8F8B9
:1006C0000010E26821F4E0511143C8F8001000075F
:1006D00008D5D8F80000216920F4604040EAC10044
:1006E000C8F8000000F07EF8D8F8001041F63A5241
:1006F000C1F30311C0F60002515C40F2000220FA7F
:1007000001F140F20800C2F200000068C2F20002EB
:100710001160FFF731FF0020BDE8F0816068811EA5
:10072000022907D258F8081C89015CBF0120BDE8E6
:10073000F08110E0012807D158F8081C89035CBF3C
:100740000120BDE8F08106E058F8081C890702D4B2
:100750000120BDE8F081D8F8001021F00301084322
:10076000C8F80000FFF7D8FE064641F2883700BF00
:10077000D8F80000616800F00C00B0EB810F8DD05C
:10078000FFF7CAFE801BB842F2D90320BDE8F08112
:1007900040F20000C2F200000068704780B5FFF729
:1007A000F7FF43F60801C4F20201096841F64A5214
:1007B000C1F38221C0F60002515CC84080BD000038
:1007C00080B5FFF7E5FF43F60801C4F202010968AE
:1007D00041F64A52C1F34231C0F60002515CC840B2
:1007E00080BD000010B543F60404C4F20204606842
:1007F00000F00C0142F200400829C0F2F40007D0DA
:10080000042918BF10BD41F20020C0F27A0010BDCB
:10081000216801F03F02216823684902C3F388116F
:1008200005D4A1FB00010023FFF7CAFC06E041F25A
:100830000020C0F27A004843B0FBF2F021680222A7
:10084000C1F3014102EB4101B0FBF1F010BD00002A
:100850002DE9F04182B0002800F09880044600782D
:1008600043F60006C007C4F2020643D0B06800F0A9
:100870000C00042805D1306880033BD56068C8BBF4
:1008800084E0B06800F00C00082802D170684002D3
:10089000F1D46568B5F5A02F0AD0B5F5803F0BD02F
:1008A000306820F480303060306820F4802006E02A
:1008B000306840F480203060306840F48030306030
:1008C000FFF72AFE002D054611D000BF30688003D7
:1008D00010D4FFF721FE401B6428F7D918E100BFB0
:1008E000FFF71AFE401B64284FF003004BD8306816
:1008F0008003F5D42078800719D5B06810F00C0F6C
:1009000008D0B06800F00C00082840F080807068C3
:1009100040027CD43068800702D5E068012835D1D8
:100920003068216920F0F80040EAC100306020788A
:1009300000072FD42078400743D4A56915B3B068C9
:1009400000F00C00082840F09580012D1ED0706842
:10095000E16900F480028A4218D1216A00F03F0266
:100960008A4213D147F6C071626A014091420DD1AB
:10097000A16A00F440328A4208D1E16A00F0706056
:10098000884203D1002002B0BDE8F081012002B00E
:10099000BDE8F0816069002840F20000C4F2472001
:1009A00057D00121C0F8801EFFF7B6FD054600BFF5
:1009B000706F8007BED4FFF7AFFD401B0228F7D948
:1009C000A6E0306C10F080580AD100200190306C05
:1009D00040F080503064306C00F0805001900198FD
:1009E00047F20007C4F200073868C00524D438680D
:1009F00040F480703860FFF78FFD05463868C00509
:100A00001AD4FFF789FD401B0228F7D980E0E0687F
:100A1000002851D00020C4F2472001210160FFF7D7
:100A20007BFD0546306880073FF57AAFFFF774FD20
:100A3000401B0228F6D96BE0A568052D50D0012D8A
:100A400052D0306F20F001003067306F20F004008A
:100A50004DE00021C0F8801EFFF75EFD054600BF97
:100A6000706F80077FF566AFFFF756FD401B0228C9
:100A7000F6D94DE00027C4F2472700203866FFF77B
:100A80004BFD022D05460BD13068800158D5FFF78C
:100A900043FD401B02284FF00300F5D973E700BF68
:100AA000306880017FF56EAFFFF736FD401B0228EE
:100AB0004FF00300F4D966E70020C4F2472000217C
:100AC0000160FFF729FD0546306880077FF52FAFED
:100AD000FFF722FD401B02284FF00300F4D952E734
:100AE000306F40F004003067306F40F00100306735
:100AF000FFF712FD002D054641F2883714D000BFE4
:100B0000306F800713D4FFF707FD401BB842F7D9B9
:100B1000032002B0BDE8F081FFF7FEFC401BB842A5
:100B20004FF003003FF62FAF306F8007F4D4B8F1D9
:100B3000000F7FF402AF306C20F080503064FCE690
:100B400004F11C052FCD084340EA8210D9034FF66B
:100B5000FF729143A1F5803140EA0560084370605F
:100B600001203866FFF7D8FC044600BF30688001DA
:100B70003FF508AFFFF7D0FC001B02284FF0030041
:100B8000F4D900E780B500F087FC80BD7047000015
:100B900070470000B0B5C26B012A04BF0220B0BD8F
:100BA00001F108053CCDD1E900CE23F47C5322F4B9
:100BB00070521A432EF4F0431A432CF4E0431A43C4
:100BC00024F4C0431A432A43C96922F480420368CB
:100BD000114359640021C1630846B0BD10B5C26B12
:100BE000012A4FF002024ED00123C363026402685F
:100BF000D2F804E0D2F808C00C682EF0700323434A
:100C000041F2FF74C4F20004A24253600DDC40F2D2
:100C1000FF73C4F200039A4215DCB2F1804F29D071
:100C200040F20043C4F2000322E040F2FF33C4F27A
:100C300001039A4212DC41F60003C4F200039A4217
:100C400018D0002312E040F60003C4F200039A42D9
:100C500010D040F60043C4F2000309E044F2000360
:100C6000C4F201039A4205D040F20043C4F20103EA
:100C70009A4204D149682CF0800319439160012104
:100C800000220164C263104610BD0000014602202C
:100C900008640868826802F00702062A03D0026826
:100CA00042F001020260012200200A647047000045
:100CB0007047000010B5044600680169890744BF09
:100CC000C1685FEA817138D420680169490744BF6F
:100CD000C1685FEA41713CD420680169090744BFDB
:100CE000C1685FEA017141D420680169C90644BF47
:100CF000C1685FEAC16145D420680169C9071CBFAA
:100D0000C1685FEAC1714AD120680169090644BF20
:100D1000C1685FEA016149D420680169490644BF9E
:100D2000C1685FEA416148D420680169890644BF0F
:100D3000C1685FEA816147D410BD6FF002010161B3
:100D40000121E1618069800745D02046FFF7B0FFAF
:100D500047E06FF0040101610221E161806910F454
:100D6000407F41D02046FFF7A3FF43E06FF008012A
:100D700001610421E161C06980073ED02046FFF790
:100D800097FF40E06FF0100101610821E161C06947
:100D900010F4407F3AD02046FFF78AFF3CE06FF026
:100DA00001010161204600F01BF9ADE76FF0800101
:100DB00001612046FFF7EAFEAEE76FF040010161F6
:100DC000204600F00FF9AFE76FF0200101612046E7
:100DD000FFF7DEFE10BD204600F050F8204600F080
:100DE000DFF80020E0616FE7204600F047F820467A
:100DF00000F0D6F80020E0616EE7204600F03EF8F3
:100E0000204600F0CDF80020E0616DE7204600F0BC
:100E100035F8204600F0C4F80020E0616CE70000DF
:100E200080B586B000220592CDE90322002100683A
:100E3000C4F2010188420292019201D006B080BD45
:100E400043F630000092C4F20200036843F010033E
:100E50000360006800F01000009000984FF42850E4
:100E600001900220CDE902020120059001F58830B1
:100E700001A90492FFF77CFA06B080BD704700001C
:100E800070B50446C06B01284FF0020008BF70BD6A
:100E90000D464FEAB20101260329E663206436D8E5
:100EA000DFE801F0020A12222068294600F020FC47
:100EB000206850F8181F0EE02068294600F048FC12
:100EC000206850F8181F16E02068294600F074FCCE
:100ED000206850F81C1F41F008010160016821F0F2
:100EE0000401016029690FE02068294600F098FCA0
:100EF000206850F81C1F41F400610160016821F472
:100F000080610160296909020268114301600020C3
:100F10002664E06370BD0000002804BF0120704714
:100F200010B50446006C20B90020E063204600F0B4
:100F30000BF8022020642068211D00F035FB012001
:100F40002064002010BD000080B582B00068002140
:100F5000C4F20101884201D002B080BD002001909E
:100F600043F64400C4F202000168002241F001018E
:100F700001600068002100F00100019001981A2032
:100F8000FFF742FB1A20FFF73BFB1B20002100224A
:100F9000FFF73AFB1B20FFF733FB02B080BD0000D8
:100FA0007047000010B504460068012200F08EFB77
:100FB000206840F2004240F48061C4F20102914294
:100FC00003D1416C41F400414164816801F00701A3
:100FD000062903D0016841F001010160002010BD25
:100FE00070470000704700007047000010B50268AD
:100FF00004461068D168536900F02F02202A01F0DE
:10100000200204D11AB1204600F052FC10BD5FEA64
:10101000007C1EBF03F0010E01F4907313EB0E036E
:101020000DD10840010606D4400658BF10BD204629
:1010300000F032FC10BD204600F02EFD10BDC307AD
:1010400018BF11F4807302D1430706D40CE0636C1F
:1010500043F001036364430706D5BEF1000F03D0DC
:10106000636C43F002036364830706D5BEF1000F8F
:1010700003D0636C43F004036364BCF1000F06D536
:1010800052EA0E0203D0626C42F008026264626CA3
:10109000002ACFD00840800602D5204600F008FC88
:1010A00020684069616C00F0400001F008014018C0
:1010B0001DD0204600F0E4FB20684169490612D5A6
:1010C000416921F040014161606B60B141F67101FD
:1010D000C0F600014165FFF7F7F80028AAD0606B61
:1010E000416D884710BD2046FFF77EFF10BD2046AA
:1010F000FFF77AFF0020606410BD0000002804BFE5
:101100000120704710B50446C06B20B90020A063D1
:10111000204600F01DF82420E0632068C16821F417
:101120000051C160204600F001FC2068016921F4F3
:1011300090410161416921F02A014161C16841F496
:101140000051C160002020216064E163216410BD72
:1011500080B586B000220592CDE9032241F200015C
:101160000068C4F2010188420292019201D006B0E7
:1011700080BD43F630000092C4F20200436943F0A0
:1011800010034361436903F010030093009B009236
:10119000036843F001030360006800F00100009061
:1011A00000984FF4C06001900220CDE902020320B4
:1011B00004900720059001F5704001A9FFF7D8F8C9
:1011C000252000210022FFF71FFA2520FFF718FA3B
:1011D00006B080BD0346006C202809D100294FF0DD
:1011E000010018BF002A00D17047986B012801D177
:1011F000022070479962002022219A85DA8558647E
:10120000196419689863CA6842F48072CA604A69AE
:1012100042F001024A61CA6842F02002CA60704787
:101220007047000070470000FEE700002DE9F04124
:1012300086B0002643F630000596CDE90366CDE979
:1012400001660096C4F20200016840F2004441F0D9
:10125000800101600168C4F2020401F08001009184
:1012600000990096016801AD41F00101016001683B
:10127000012701F00101009100990096016841F0F9
:1012800010010160016801F01001009100990096C1
:10129000016841F002010160016801F00201009162
:1012A00000990096016841F0040101600068294638
:1012B00000F0040000900098A4F58060CDE901766C
:1012C0000396FFF755F84FF4806001A9C1C120468D
:1012D0002946FFF74DF80020C1F211004FF04008F9
:1012E0000290022704F580602946CDF80480039718
:1012F000FFF73EF820462946CDE901860397FFF720
:1013000037F8172000210022FFF77EF91720FFF79A
:1013100077F906B0BDE8F08110B592B040F2180040
:1013200000210024C2F20000C4F2010144F620634F
:101330004FF0800C1194CDE90F44CDE90D44CDE977
:101340000B44CDE90944CDE90744CDE90544CDE995
:101350000344CDE90144532280E81600C0E9033478
:10136000C0E9054CFFF7D8FD002818BFFEF7A6FF1F
:1013700040F21800C2F2000010A9CDE91044FFF7B6
:101380002DFC002818BFFEF799FF6020099040F25D
:10139000DC500A900020CDE90B00CDE90D000F9044
:1013A00040F21800C2F2000009A90022FFF768FD10
:1013B000002818BFFEF782FF40F21800C2F20000BA
:1013C00009A90422FFF75CFD002818BFFEF776FF8D
:1013D00040F21800C2F2000009A90822FFF750FDF0
:1013E000002818BFFEF76AFF00200590CDE9030032
:1013F000CDE901004FF40051089040F21800069129
:10140000C2F2000001A9FFF7C5FB002818BFFEF7D4
:1014100055FF40F21800C2F20000FFF701FD12B0C4
:1014200010BD000080B540F25C0041F20001C2F244
:101430000000C4F2010100234FF00C0C4FF4E13224
:1014400080E80E00C0E90333C0E905C3C361FFF7BC
:1014500055FE002818BFFEF731FF80BDFEE70000F3
:10146000FEE7000000F0070080F00703042B28BF10
:1014700004234FF0FF3C03380CFA03F338BF00207D
:10148000994381400CFA00F022EA000008437047BB
:101490007047000070470000B0B501380024B4EB7D
:1014A000106F1CBF0120B0BD4EF21005CEF200053A
:1014B00068604FF0FF300F2100F050FB0720AC6058
:1014C00028602046B0BD000080B5FFF72BF880BD36
:1014D00070B592B006AC20463021FEF7A9FE00257B
:1014E00043F640000595CDE90355CDE9015500953A
:1014F000C4F202000168022641F0805101600068D8
:1015000000F080500090009847F200000095C4F26F
:101510000000016841F480410160006800F48040EF
:10152000009000980120099010200A90082006964B
:10153000CDE90C650E905420CDE90F0604201190E2
:101540002046FFF785F978B90F20CDE901064FF461
:1015500080500395CDE9040001A80221FFF768F847
:10156000002804BF12B070BDFEF7A8FE4EF68850EA
:10157000CEF20000016841F4700101604FF000619B
:1015800040F8801C7047000080B540F21800C2F29D
:101590000000FFF78FFB80BD80B540F21800C2F25B
:1015A0000000FFF787FB80BD10B540F6FF3E0368E3
:1015B000C4F2000E40F2004C7045C4F2010C0FDC86
:1015C000B0F1804F19D040F20042C4F200029042C4
:1015D00013D040F60002C4F2000290420DD010E099
:1015E00040F60042C4F20002904206D0604504D0AA
:1015F0000022C4F20102904203D14A6823F0700332
:10160000134341F6FF72C4F2000290420DDC7045B4
:101610001FDCB0F1804F41D040F20042C4F2000222
:1016200090423BD040F6000221E043F6FF72C4F244
:101630000102904220DC42F20002C4F20002904219
:101640002CD00022C4F20102904227D0604525D060
:1016500028E040F60042C4F2000290421ED041F65B
:101660000002C4F20002904218D041F60042C4F2D7
:101670000002904212D015E044F20002C4F20102CE
:1016800090420BD044F60002C4F20102904205D011
:1016900044F20042C4F20102904203D1CA6823F42A
:1016A0004073134323F080024B69D1F800E08C684B
:1016B0001A430260C46240F48062C0F828E06245C8
:1016C00004BF096901630121416110BD80B501F0CA
:1016D0001F014FF0010CD0F820E00CFA01F32EEAC4
:1016E00003030362036A02FA01F11943016280BD38
:1016F00070B5026A40F2004522F001020262036AFC
:101700004268D0F818C08E68D1F800E023F00203D8
:1017100040F48064C4F20105AC4243EA060305D1FB
:10172000CE6823F00C0326F004063343AC4205D107
:10173000D1E9054522F4407222432A432CF0730676
:1017400046EA0E064260866149684163036270BDE5
:10175000F0B5026A40F2004522F010020262036A0C
:101760004268D0F818C08E68D1F800E023F020035A
:1017700040F48064C4F20105AC4243EA061307D189
:10178000CE686FF0400723F0C00307EA0616334324
:10179000AC4207D1D1E9054522F4406242EA840215
:1017A00042EA85022CF4E64747EA0E274260876149
:1017B000496881630362F0BDF0B5026A40F20045FA
:1017C00022F480720262036A4268D0F81CC08E68FC
:1017D000D1F800E023F4007340F48064C4F2010502
:1017E000AC4243EA062307D1CE6840F2FF473602F7
:1017F00023F44063BE433343AC4207D1D1E90545EE
:1018000022F4405242EA041242EA05122CF0730715
:1018100047EA0E074260C7614968C1630362F0BDD1
:1018200070B5026A40F2004622F480520262026AF7
:101830004368D0F81CE00C68D1F808C040F480651B
:10184000C4F20106B54204D14D6923F4804343EA52
:1018500085132EF4E64646EA04264360C66122F468
:101860000052496842EA0C320164026270BD000015
:1018700080B5C06B0021C185C184FFF7B5FB80BD79
:101880000168CA6822F49072CA604A6922F00102B3
:101890004A6120210164704780B50168CA6822F05E
:1018A0004002CA602021C163FFF7BCFC80BD00007C
:1018B00080B5016C222937D18168B1F5805F0AD1EA
:1018C00002680369816A52688BB1836AD2B20A8066
:1018D000591C816211E0016802694968002A826A24
:1018E00018BF01F07F01531C8362117005E0836A09
:1018F0006FF35F220A80991C8162C18D01390A044D
:10190000C18518BF80BD0168CA6822F02002CA6084
:10191000CA6822F48072CA604A6922F001024A61F0
:1019200020210164FFF77CFC80BD0000B0B50546B6
:10193000006805F108030ECB0469194324F44054F0
:10194000224302616A69EB691143C26849F20C647F
:101950001943A2431143C1604169AA6921F440714E
:101960001143416141F20041B3F5004F40F4806002
:10197000C4F2010124D1884246D1FEF721FF6B68F1
:101980001921A0FB01015A00DB0FFEF719FC48F2F8
:101990001F51C5F2EB11A0FB01235A096FF063033D
:1019A00002FB0300322303EBC000A0FB01014FF454
:1019B000F87000EA111000EB0210C1F3421167E069
:1019C000884244D1FEF7FCFE6B681921A0FB01019F
:1019D0009A009B0FFEF7F4FB48F21F51C5F2EB1182
:1019E000A0FB01235A096FF0630302FB03003223BB
:1019F00003EB0010A0FB0101F02000EA511000EB06
:101A00000210C1F3431143E0FEF7C8FE6B681921D1
:101A1000A0FB01015A00DB0FFEF7D2FB48F21F5179
:101A2000C5F2EB11A0FB01235A096FF0630302FB1F
:101A30000300322303EBC000A0FB01014FF4F87058
:101A400000EA111000EB0210C1F3421120E0FEF792
:101A5000A5FE6B681921A0FB01019A009B0FFEF700
:101A6000AFFB48F21F51C5F2EB11A0FB01235A094D
:101A70006FF0630302FB0300322303EB0010A0FBB3
:101A80000101F02000EA511000EB0210C1F34311F4
:101A90002A6808439060B0BDC16B212927D18168B5
:101AA000B1F5805F0ED1016AD0F800C00B880269E1
:101AB0006FF35F23002ACCF8043014BF01310231E8
:101AC000016205E0016A02684B1C036209785160FB
:101AD000C18C01390A04C18418BF70470068C1680D
:101AE00021F08001C160C16841F04001C1607047D0
:101AF00010B541F20C00C4F20100006810F0140FA0
:101B000018BF00F04DF840F25C04C2F20004204619
:101B1000FFF76CFA40F21101C2F2000120460122E7
:101B2000FFF758FB10BD0000FEE70000002848BF8B
:101B3000704700F01F01012202FA01F14EF200127B
:101B40004009CEF2000242F8201070474EF60C50C9
:101B5000CEF200000068C0F3022070474EF6145326
:101B600000F00F02CEF2000309011A4400F16043B5
:101B7000B0F1FF3FC8BF03F5644211707047000029
:101B80004EF60C51CEF200010A684FF6FF031A40E0
:101B900060F30A2242F0806040F0FD7008607047F8
:101BA00010B541F2040040F29E1CC4F20100C2F2E2
:101BB000000C03689CF8000040F2A40E411CC2F225
:101BC000000ECAB21EF802408CF80010552C0EF818
:101BD000003009D1042A38BF10BDDEF8000040F201
:101BE0001101C2F20001086000208CF8000010BD55
:101BF000FEF7A6FCFFF76CFCFFF718FBFFF78CFB6A
:101C0000FFF710FC40F21804C2F200042046002145
:101C1000FFF7C8F920460421FFF7C4F92046082140
:101C2000FFF7C0F92046FFF731F84FF44870FEF790
:101C30005BFB00BF00F002F8FCE70000B0B540F22B
:101C40001004C2F20004207840F215050528C2F203
:101C5000000545D8DFE800F0030E032103343420EB
:101C6000C4F2010040F2DC510160416040F21451C5
:101C7000816035E03420C4F201004FF41671016038
:101C800040F2DC51416040F2145181604FF44870E1
:101C9000FEF72AFB0120287022E03420C4F2010064
:101CA00040F2DC5101604FF41671416040F2145172
:101CB00081604FF44870FEF717FB012068700FE059
:101CC0003420C4F2010040F2DC51016041604FF465
:101CD000167181604FF44870FEF706FB0120A87072
:101CE0002078012804D12978012901D1022010E0AF
:101CF000032806D1294611F8012F012A01D1042019
:101D000008E0052809D115F8020F012818BFB0BD59
:101D100000202946207000200870B0BD02E008C8ED
:101D2000121F08C1002AFAD170477047002001E055
:101D300001C1121F002AFBD1704700000000000003
:101D40000000010203040607080900000000010268
:101D500003040000781D00080000002010000000AF
:101D60001C1D0008881D00081000002098050000B8
:101D70002C1D0008000000000024F40001000000F9
:081D800010000000000000004B
:040000050800018965
:00000001FF
